{
  "_format": "hh-sol-artifact-1",
  "contractName": "MarketPlace",
  "sourceName": "src/backend/contracts/Marketplace.sol",
  "abi": [
    {
      "inputs": [],
      "stateMutability": "nonpayable",
      "type": "constructor"
    },
    {
      "anonymous": false,
      "inputs": [
        {
          "indexed": false,
          "internalType": "uint256",
          "name": "itemId",
          "type": "uint256"
        },
        {
          "indexed": true,
          "internalType": "address",
          "name": "nft",
          "type": "address"
        },
        {
          "indexed": false,
          "internalType": "uint256",
          "name": "tokenId",
          "type": "uint256"
        },
        {
          "indexed": false,
          "internalType": "uint256",
          "name": "price",
          "type": "uint256"
        },
        {
          "indexed": true,
          "internalType": "address",
          "name": "seller",
          "type": "address"
        },
        {
          "indexed": true,
          "internalType": "address",
          "name": "buyer",
          "type": "address"
        }
      ],
      "name": "Bought",
      "type": "event"
    },
    {
      "anonymous": false,
      "inputs": [
        {
          "indexed": false,
          "internalType": "uint256",
          "name": "itemId",
          "type": "uint256"
        },
        {
          "indexed": true,
          "internalType": "address",
          "name": "nft",
          "type": "address"
        },
        {
          "indexed": false,
          "internalType": "uint256",
          "name": "tokenId",
          "type": "uint256"
        },
        {
          "indexed": false,
          "internalType": "uint256",
          "name": "price",
          "type": "uint256"
        },
        {
          "indexed": true,
          "internalType": "address",
          "name": "seller",
          "type": "address"
        }
      ],
      "name": "Offered",
      "type": "event"
    },
    {
      "inputs": [
        {
          "internalType": "uint256",
          "name": "_itemId",
          "type": "uint256"
        }
      ],
      "name": "getTotalPrice",
      "outputs": [
        {
          "internalType": "uint256",
          "name": "",
          "type": "uint256"
        }
      ],
      "stateMutability": "view",
      "type": "function"
    },
    {
      "inputs": [],
      "name": "itemCount",
      "outputs": [
        {
          "internalType": "uint256",
          "name": "",
          "type": "uint256"
        }
      ],
      "stateMutability": "view",
      "type": "function"
    },
    {
      "inputs": [
        {
          "internalType": "uint256",
          "name": "",
          "type": "uint256"
        }
      ],
      "name": "items",
      "outputs": [
        {
          "internalType": "uint256",
          "name": "itemId",
          "type": "uint256"
        },
        {
          "internalType": "contract IERC721",
          "name": "nft",
          "type": "address"
        },
        {
          "internalType": "uint256",
          "name": "tokenId",
          "type": "uint256"
        },
        {
          "internalType": "uint256",
          "name": "price",
          "type": "uint256"
        },
        {
          "internalType": "address payable",
          "name": "seller",
          "type": "address"
        },
        {
          "internalType": "bool",
          "name": "sold",
          "type": "bool"
        }
      ],
      "stateMutability": "view",
      "type": "function"
    },
    {
      "inputs": [
        {
          "internalType": "contract IERC721",
          "name": "_nft",
          "type": "address"
        },
        {
          "internalType": "uint256",
          "name": "_tokenId",
          "type": "uint256"
        },
        {
          "internalType": "uint256",
          "name": "_price",
          "type": "uint256"
        }
      ],
      "name": "listItem",
      "outputs": [],
      "stateMutability": "nonpayable",
      "type": "function"
    },
    {
      "inputs": [
        {
          "internalType": "uint256",
          "name": "_itemId",
          "type": "uint256"
        }
      ],
      "name": "purchaseItem",
      "outputs": [],
      "stateMutability": "payable",
      "type": "function"
    }
  ],
  "bytecode": "0x608060405234801561001057600080fd5b5060016000556106f9806100256000396000f3fe60806040526004361061004a5760003560e01c80636bfb0d011461004f57806389bfd38f14610078578063bfb231d21461009a578063ca7dd37514610139578063d38ea5bf14610169575b600080fd5b34801561005b57600080fd5b5061006560015481565b6040519081526020015b60405180910390f35b34801561008457600080fd5b50610098610093366004610645565b61017c565b005b3480156100a657600080fd5b506100fd6100b5366004610684565b60026020819052600091825260409091208054600182015492820154600383015460049093015491936001600160a01b0390811693919290811690600160a01b900460ff1686565b604080519687526001600160a01b03958616602088015286019390935260608501919091529091166080830152151560a082015260c00161006f565b34801561014557600080fd5b50610065610154366004610684565b60009081526002602052604090206003015490565b610098610177366004610684565b610397565b600260005414156101d45760405162461bcd60e51b815260206004820152601f60248201527f5265656e7472616e637947756172643a207265656e7472616e742063616c6c0060448201526064015b60405180910390fd5b6002600055806102265760405162461bcd60e51b815260206004820152601f60248201527f5072696365206d7573742062652067726561746572207468616e207a65726f0060448201526064016101cb565b600180549060006102368361069c565b90915550506040516323b872dd60e01b8152336004820152306024820152604481018390526001600160a01b038416906323b872dd90606401600060405180830381600087803b15801561028957600080fd5b505af115801561029d573d6000803e3d6000fd5b50506040805160c081018252600180548083526001600160a01b0389811660208086018281528688018c815260608089018d81523360808b01818152600060a08d018181529a81526002808952908e90209c518d5595518c8c018054918b166001600160a01b03199092169190911790559351948b01949094555160038a015590516004909801805496511515600160a01b026001600160a81b031990971698909516979097179490941790925592548551908152908101899052938401879052945092507f655a0cf9c8db81512be9a76dc1c5ae5380b8816ce6ad659cd61b715e2999d59a910160405180910390a35050600160005550565b600260005414156103ea5760405162461bcd60e51b815260206004820152601f60248201527f5265656e7472616e637947756172643a207265656e7472616e742063616c6c0060448201526064016101cb565b6002600081815582815260209190915260409020600381015490821580159061041557506001548311155b6104565760405162461bcd60e51b81526020600482015260126024820152711a5d195b48191bd95cdb89dd08195e1a5cdd60721b60448201526064016101cb565b813410156104c25760405162461bcd60e51b815260206004820152603360248201527f6e6f7420656e6f75676820657468657220746f20636f766572206974656d20706044820152727269636520616e64206d61726b65742066656560681b60648201526084016101cb565b6004810154600160a01b900460ff16156105125760405162461bcd60e51b81526020600482015260116024820152701a5d195b48185b1c9958591e481cdbdb19607a1b60448201526064016101cb565b600481015460038201546040516001600160a01b039092169181156108fc0291906000818181858888f19350505050158015610552573d6000803e3d6000fd5b506004818101805460ff60a01b1916600160a01b179055600182015460028301546040516323b872dd60e01b8152309381019390935233602484015260448301526001600160a01b0316906323b872dd90606401600060405180830381600087803b1580156105c057600080fd5b505af11580156105d4573d6000803e3d6000fd5b50505050600481015460018201546002830154600384015460408051888152602081019390935282015233926001600160a01b039081169216907f8b4c9c8a607d67b321582dd8461041b1dc2ceeca70c8b7f37f8e02095cf2e76d9060600160405180910390a45050600160005550565b600080600060608486031215610659578283fd5b83356001600160a01b038116811461066f578384fd5b95602085013595506040909401359392505050565b600060208284031215610695578081fd5b5035919050565b60006000198214156106bc57634e487b7160e01b81526011600452602481fd5b506001019056fea2646970667358221220f7cf7cfcded3b51357d3fbf750a7ef8b2d002416faa8239f950e2d94bcc31be764736f6c63430008040033",
  "linkReferences": {},
  "deployedLinkReferences": {}
}