{
  "_format": "hh-sol-artifact-1",
  "contractName": "NFTContract",
  "sourceName": "src/backend/contracts/NFTContract.sol",
  "abi": [
    {
      "inputs": [],
      "stateMutability": "nonpayable",
      "type": "constructor"
    },
    {
      "anonymous": false,
      "inputs": [
        {
          "indexed": true,
          "internalType": "address",
          "name": "owner",
          "type": "address"
        },
        {
          "indexed": true,
          "internalType": "address",
          "name": "approved",
          "type": "address"
        },
        {
          "indexed": true,
          "internalType": "uint256",
          "name": "tokenId",
          "type": "uint256"
        }
      ],
      "name": "Approval",
      "type": "event"
    },
    {
      "anonymous": false,
      "inputs": [
        {
          "indexed": true,
          "internalType": "address",
          "name": "owner",
          "type": "address"
        },
        {
          "indexed": true,
          "internalType": "address",
          "name": "operator",
          "type": "address"
        },
        {
          "indexed": false,
          "internalType": "bool",
          "name": "approved",
          "type": "bool"
        }
      ],
      "name": "ApprovalForAll",
      "type": "event"
    },
    {
      "anonymous": false,
      "inputs": [
        {
          "indexed": true,
          "internalType": "address",
          "name": "previousOwner",
          "type": "address"
        },
        {
          "indexed": true,
          "internalType": "address",
          "name": "newOwner",
          "type": "address"
        }
      ],
      "name": "OwnershipTransferred",
      "type": "event"
    },
    {
      "anonymous": false,
      "inputs": [
        {
          "indexed": true,
          "internalType": "address",
          "name": "from",
          "type": "address"
        },
        {
          "indexed": true,
          "internalType": "address",
          "name": "to",
          "type": "address"
        },
        {
          "indexed": true,
          "internalType": "uint256",
          "name": "tokenId",
          "type": "uint256"
        }
      ],
      "name": "Transfer",
      "type": "event"
    },
    {
      "inputs": [
        {
          "internalType": "address",
          "name": "",
          "type": "address"
        }
      ],
      "name": "_allowList",
      "outputs": [
        {
          "internalType": "bool",
          "name": "",
          "type": "bool"
        }
      ],
      "stateMutability": "view",
      "type": "function"
    },
    {
      "inputs": [
        {
          "internalType": "address",
          "name": "to",
          "type": "address"
        },
        {
          "internalType": "uint256",
          "name": "tokenId",
          "type": "uint256"
        }
      ],
      "name": "approve",
      "outputs": [],
      "stateMutability": "nonpayable",
      "type": "function"
    },
    {
      "inputs": [
        {
          "internalType": "address",
          "name": "owner",
          "type": "address"
        }
      ],
      "name": "balanceOf",
      "outputs": [
        {
          "internalType": "uint256",
          "name": "",
          "type": "uint256"
        }
      ],
      "stateMutability": "view",
      "type": "function"
    },
    {
      "inputs": [
        {
          "internalType": "uint256",
          "name": "tokenId",
          "type": "uint256"
        }
      ],
      "name": "getApproved",
      "outputs": [
        {
          "internalType": "address",
          "name": "",
          "type": "address"
        }
      ],
      "stateMutability": "view",
      "type": "function"
    },
    {
      "inputs": [
        {
          "internalType": "address",
          "name": "owner",
          "type": "address"
        },
        {
          "internalType": "address",
          "name": "operator",
          "type": "address"
        }
      ],
      "name": "isApprovedForAll",
      "outputs": [
        {
          "internalType": "bool",
          "name": "",
          "type": "bool"
        }
      ],
      "stateMutability": "view",
      "type": "function"
    },
    {
      "inputs": [
        {
          "internalType": "uint8",
          "name": "numberOfTokens",
          "type": "uint8"
        },
        {
          "internalType": "string",
          "name": "_tokenUri",
          "type": "string"
        },
        {
          "internalType": "address",
          "name": "markplace",
          "type": "address"
        }
      ],
      "name": "mintAllowList",
      "outputs": [],
      "stateMutability": "nonpayable",
      "type": "function"
    },
    {
      "inputs": [],
      "name": "name",
      "outputs": [
        {
          "internalType": "string",
          "name": "",
          "type": "string"
        }
      ],
      "stateMutability": "view",
      "type": "function"
    },
    {
      "inputs": [],
      "name": "owner",
      "outputs": [
        {
          "internalType": "address",
          "name": "",
          "type": "address"
        }
      ],
      "stateMutability": "view",
      "type": "function"
    },
    {
      "inputs": [
        {
          "internalType": "uint256",
          "name": "tokenId",
          "type": "uint256"
        }
      ],
      "name": "ownerOf",
      "outputs": [
        {
          "internalType": "address",
          "name": "",
          "type": "address"
        }
      ],
      "stateMutability": "view",
      "type": "function"
    },
    {
      "inputs": [],
      "name": "renounceOwnership",
      "outputs": [],
      "stateMutability": "nonpayable",
      "type": "function"
    },
    {
      "inputs": [
        {
          "internalType": "address",
          "name": "from",
          "type": "address"
        },
        {
          "internalType": "address",
          "name": "to",
          "type": "address"
        },
        {
          "internalType": "uint256",
          "name": "tokenId",
          "type": "uint256"
        }
      ],
      "name": "safeTransferFrom",
      "outputs": [],
      "stateMutability": "nonpayable",
      "type": "function"
    },
    {
      "inputs": [
        {
          "internalType": "address",
          "name": "from",
          "type": "address"
        },
        {
          "internalType": "address",
          "name": "to",
          "type": "address"
        },
        {
          "internalType": "uint256",
          "name": "tokenId",
          "type": "uint256"
        },
        {
          "internalType": "bytes",
          "name": "_data",
          "type": "bytes"
        }
      ],
      "name": "safeTransferFrom",
      "outputs": [],
      "stateMutability": "nonpayable",
      "type": "function"
    },
    {
      "inputs": [
        {
          "internalType": "address",
          "name": "operator",
          "type": "address"
        },
        {
          "internalType": "bool",
          "name": "approved",
          "type": "bool"
        }
      ],
      "name": "setApprovalForAll",
      "outputs": [],
      "stateMutability": "nonpayable",
      "type": "function"
    },
    {
      "inputs": [
        {
          "internalType": "string",
          "name": "_tokenUri",
          "type": "string"
        },
        {
          "internalType": "address",
          "name": "markplace",
          "type": "address"
        }
      ],
      "name": "singleMint",
      "outputs": [],
      "stateMutability": "nonpayable",
      "type": "function"
    },
    {
      "inputs": [
        {
          "internalType": "bytes4",
          "name": "interfaceId",
          "type": "bytes4"
        }
      ],
      "name": "supportsInterface",
      "outputs": [
        {
          "internalType": "bool",
          "name": "",
          "type": "bool"
        }
      ],
      "stateMutability": "view",
      "type": "function"
    },
    {
      "inputs": [],
      "name": "symbol",
      "outputs": [
        {
          "internalType": "string",
          "name": "",
          "type": "string"
        }
      ],
      "stateMutability": "view",
      "type": "function"
    },
    {
      "inputs": [
        {
          "internalType": "uint256",
          "name": "tokenId",
          "type": "uint256"
        }
      ],
      "name": "tokenURI",
      "outputs": [
        {
          "internalType": "string",
          "name": "",
          "type": "string"
        }
      ],
      "stateMutability": "view",
      "type": "function"
    },
    {
      "inputs": [],
      "name": "totalSupply",
      "outputs": [
        {
          "internalType": "uint256",
          "name": "",
          "type": "uint256"
        }
      ],
      "stateMutability": "view",
      "type": "function"
    },
    {
      "inputs": [
        {
          "internalType": "address",
          "name": "from",
          "type": "address"
        },
        {
          "internalType": "address",
          "name": "to",
          "type": "address"
        },
        {
          "internalType": "uint256",
          "name": "tokenId",
          "type": "uint256"
        }
      ],
      "name": "transferFrom",
      "outputs": [],
      "stateMutability": "nonpayable",
      "type": "function"
    },
    {
      "inputs": [
        {
          "internalType": "address",
          "name": "newOwner",
          "type": "address"
        }
      ],
      "name": "transferOwnership",
      "outputs": [],
      "stateMutability": "nonpayable",
      "type": "function"
    },
    {
      "inputs": [
        {
          "internalType": "address",
          "name": "walletAddress",
          "type": "address"
        }
      ],
      "name": "whitelistAdmins",
      "outputs": [],
      "stateMutability": "nonpayable",
      "type": "function"
    }
  ],
  "bytecode": "0x60806040523480156200001157600080fd5b50604080518082018252600b81526a15195cdd1a5b99c813919560aa1b6020808301918252835180850190945260048452631513919560e21b9084015281519192916200006191600091620000f0565b50805162000077906001906020840190620000f0565b505050620000946200008e6200009a60201b60201c565b6200009e565b620001d3565b3390565b600780546001600160a01b038381166001600160a01b0319831681179093556040519116919082907f8be0079c531659141344cd1fd0a4f28419497f9722a3daafe3b4186f6b6457e090600090a35050565b828054620000fe9062000196565b90600052602060002090601f0160209004810192826200012257600085556200016d565b82601f106200013d57805160ff19168380011785556200016d565b828001600101855582156200016d579182015b828111156200016d57825182559160200191906001019062000150565b506200017b9291506200017f565b5090565b5b808211156200017b576000815560010162000180565b600181811c90821680620001ab57607f821691505b60208210811415620001cd57634e487b7160e01b600052602260045260246000fd5b50919050565b611ab280620001e36000396000f3fe608060405234801561001057600080fd5b50600436106101375760003560e01c806370a08231116100b8578063a22cb4651161007c578063a22cb46514610281578063b88d4fde14610294578063c87b56dd146102a7578063d29dd76d146102ba578063e985e9c5146102ec578063f2fde38b1461032857600080fd5b806370a082311461023a578063715018a61461024d5780638da5cb5b1461025557806395d89b41146102665780639b4ed6451461026e57600080fd5b806323b872dd116100ff57806323b872dd146101cb57806342842e0e146101de5780634d5eb675146101f15780635ccba052146102045780636352211e1461022757600080fd5b806301ffc9a71461013c57806306fdde0314610164578063081812fc14610179578063095ea7b3146101a457806318160ddd146101b9575b600080fd5b61014f61014a366004611707565b61033b565b60405190151581526020015b60405180910390f35b61016c61038d565b60405161015b9190611895565b61018c610187366004611782565b61041f565b6040516001600160a01b03909116815260200161015b565b6101b76101b23660046116de565b6104ac565b005b6008545b60405190815260200161015b565b6101b76101d93660046115f0565b6105c2565b6101b76101ec3660046115f0565b6105f3565b6101b76101ff36600461173f565b61060e565b61014f6102123660046115a4565b60096020526000908152604090205460ff1681565b61018c610235366004611782565b61064a565b6101bd6102483660046115a4565b6106c1565b6101b7610748565b6007546001600160a01b031661018c565b61016c6107ae565b6101b761027c36600461179a565b6107bd565b6101b761028f3660046116a4565b610870565b6101b76102a236600461162b565b61087b565b61016c6102b5366004611782565b6108ad565b6101b76102c83660046115a4565b6001600160a01b03166000908152600960205260409020805460ff19166001179055565b61014f6102fa3660046115be565b6001600160a01b03918216600090815260056020908152604080832093909416825291909152205460ff1690565b6101b76103363660046115a4565b610a24565b60006001600160e01b031982166380ac58cd60e01b148061036c57506001600160e01b03198216635b5e139f60e01b145b8061038757506301ffc9a760e01b6001600160e01b03198316145b92915050565b60606000805461039c906119ba565b80601f01602080910402602001604051908101604052809291908181526020018280546103c8906119ba565b80156104155780601f106103ea57610100808354040283529160200191610415565b820191906000526020600020905b8154815290600101906020018083116103f857829003601f168201915b5050505050905090565b600061042a82610aef565b6104905760405162461bcd60e51b815260206004820152602c60248201527f4552433732313a20617070726f76656420717565727920666f72206e6f6e657860448201526b34b9ba32b73a103a37b5b2b760a11b60648201526084015b60405180910390fd5b506000908152600460205260409020546001600160a01b031690565b60006104b78261064a565b9050806001600160a01b0316836001600160a01b031614156105255760405162461bcd60e51b815260206004820152602160248201527f4552433732313a20617070726f76616c20746f2063757272656e74206f776e656044820152603960f91b6064820152608401610487565b336001600160a01b0382161480610541575061054181336102fa565b6105b35760405162461bcd60e51b815260206004820152603860248201527f4552433732313a20617070726f76652063616c6c6572206973206e6f74206f7760448201527f6e6572206e6f7220617070726f76656420666f7220616c6c00000000000000006064820152608401610487565b6105bd8383610b0c565b505050565b6105cc3382610b7a565b6105e85760405162461bcd60e51b8152600401610487906118fa565b6105bd838383610c60565b6105bd8383836040518060200160405280600081525061087b565b6008805490600061061e836119f5565b919050555061062f33600854610dfc565b61063b60085483610e16565b610646816001610870565b5050565b6000818152600260205260408120546001600160a01b0316806103875760405162461bcd60e51b815260206004820152602960248201527f4552433732313a206f776e657220717565727920666f72206e6f6e657869737460448201526832b73a103a37b5b2b760b91b6064820152608401610487565b60006001600160a01b03821661072c5760405162461bcd60e51b815260206004820152602a60248201527f4552433732313a2062616c616e636520717565727920666f7220746865207a65604482015269726f206164647265737360b01b6064820152608401610487565b506001600160a01b031660009081526003602052604090205490565b6007546001600160a01b031633146107a25760405162461bcd60e51b815260206004820181905260248201527f4f776e61626c653a2063616c6c6572206973206e6f7420746865206f776e65726044820152606401610487565b6107ac6000610ea1565b565b60606001805461039c906119ba565b3360009081526009602052604090205460ff1615156001146108125760405162461bcd60e51b815260206004820152600e60248201526d24b73b30b634b21026b4b73a32b960911b6044820152606401610487565b60005b8360ff1681101561086a5760088054906000610830836119f5565b919050555061084133600854610dfc565b61084d60085484610e16565b610858826001610870565b80610862816119f5565b915050610815565b50505050565b610646338383610ef3565b6108853383610b7a565b6108a15760405162461bcd60e51b8152600401610487906118fa565b61086a84848484610fc2565b60606108b882610aef565b61091e5760405162461bcd60e51b815260206004820152603160248201527f45524337323155524953746f726167653a2055524920717565727920666f72206044820152703737b732bc34b9ba32b73a103a37b5b2b760791b6064820152608401610487565b60008281526006602052604081208054610937906119ba565b80601f0160208091040260200160405190810160405280929190818152602001828054610963906119ba565b80156109b05780601f10610985576101008083540402835291602001916109b0565b820191906000526020600020905b81548152906001019060200180831161099357829003601f168201915b5050505050905060006109ce60408051602081019091526000815290565b90508051600014156109e1575092915050565b815115610a135780826040516020016109fb929190611829565b60405160208183030381529060405292505050919050565b610a1c84610ff5565b949350505050565b6007546001600160a01b03163314610a7e5760405162461bcd60e51b815260206004820181905260248201527f4f776e61626c653a2063616c6c6572206973206e6f7420746865206f776e65726044820152606401610487565b6001600160a01b038116610ae35760405162461bcd60e51b815260206004820152602660248201527f4f776e61626c653a206e6577206f776e657220697320746865207a65726f206160448201526564647265737360d01b6064820152608401610487565b610aec81610ea1565b50565b6000908152600260205260409020546001600160a01b0316151590565b600081815260046020526040902080546001600160a01b0319166001600160a01b0384169081179091558190610b418261064a565b6001600160a01b03167f8c5be1e5ebec7d5bd14f71427d1e84f3dd0314c0f7b2291e5b200ac8c7c3b92560405160405180910390a45050565b6000610b8582610aef565b610be65760405162461bcd60e51b815260206004820152602c60248201527f4552433732313a206f70657261746f7220717565727920666f72206e6f6e657860448201526b34b9ba32b73a103a37b5b2b760a11b6064820152608401610487565b6000610bf18361064a565b9050806001600160a01b0316846001600160a01b03161480610c2c5750836001600160a01b0316610c218461041f565b6001600160a01b0316145b80610a1c57506001600160a01b0380821660009081526005602090815260408083209388168352929052205460ff16610a1c565b826001600160a01b0316610c738261064a565b6001600160a01b031614610cd75760405162461bcd60e51b815260206004820152602560248201527f4552433732313a207472616e736665722066726f6d20696e636f72726563742060448201526437bbb732b960d91b6064820152608401610487565b6001600160a01b038216610d395760405162461bcd60e51b8152602060048201526024808201527f4552433732313a207472616e7366657220746f20746865207a65726f206164646044820152637265737360e01b6064820152608401610487565b610d44600082610b0c565b6001600160a01b0383166000908152600360205260408120805460019290610d6d908490611977565b90915550506001600160a01b0382166000908152600360205260408120805460019290610d9b90849061194b565b909155505060008181526002602052604080822080546001600160a01b0319166001600160a01b0386811691821790925591518493918716917fddf252ad1be2c89b69c2b068fc378daa952ba7f163c4a11628f55a4df523b3ef91a4505050565b6106468282604051806020016040528060008152506110cd565b610e1f82610aef565b610e825760405162461bcd60e51b815260206004820152602e60248201527f45524337323155524953746f726167653a2055524920736574206f66206e6f6e60448201526d32bc34b9ba32b73a103a37b5b2b760911b6064820152608401610487565b600082815260066020908152604090912082516105bd9284019061145a565b600780546001600160a01b038381166001600160a01b0319831681179093556040519116919082907f8be0079c531659141344cd1fd0a4f28419497f9722a3daafe3b4186f6b6457e090600090a35050565b816001600160a01b0316836001600160a01b03161415610f555760405162461bcd60e51b815260206004820152601960248201527f4552433732313a20617070726f766520746f2063616c6c6572000000000000006044820152606401610487565b6001600160a01b03838116600081815260056020908152604080832094871680845294825291829020805460ff191686151590811790915591519182527f17307eab39ab6107e8899845ad3d59bd9653f200f220920489ca2b5937696c31910160405180910390a3505050565b610fcd848484610c60565b610fd984848484611100565b61086a5760405162461bcd60e51b8152600401610487906118a8565b606061100082610aef565b6110645760405162461bcd60e51b815260206004820152602f60248201527f4552433732314d657461646174613a2055524920717565727920666f72206e6f60448201526e3732bc34b9ba32b73a103a37b5b2b760891b6064820152608401610487565b600061107b60408051602081019091526000815290565b9050600081511161109b57604051806020016040528060008152506110c6565b806110a58461120d565b6040516020016110b6929190611829565b6040516020818303038152906040525b9392505050565b6110d78383611327565b6110e46000848484611100565b6105bd5760405162461bcd60e51b8152600401610487906118a8565b60006001600160a01b0384163b1561120257604051630a85bd0160e11b81526001600160a01b0385169063150b7a0290611144903390899088908890600401611858565b602060405180830381600087803b15801561115e57600080fd5b505af192505050801561118e575060408051601f3d908101601f1916820190925261118b91810190611723565b60015b6111e8573d8080156111bc576040519150601f19603f3d011682016040523d82523d6000602084013e6111c1565b606091505b5080516111e05760405162461bcd60e51b8152600401610487906118a8565b805181602001fd5b6001600160e01b031916630a85bd0160e11b149050610a1c565b506001949350505050565b6060816112315750506040805180820190915260018152600360fc1b602082015290565b8160005b811561125b5780611245816119f5565b91506112549050600a83611963565b9150611235565b60008167ffffffffffffffff81111561128457634e487b7160e01b600052604160045260246000fd5b6040519080825280601f01601f1916602001820160405280156112ae576020820181803683370190505b5090505b8415610a1c576112c3600183611977565b91506112d0600a86611a10565b6112db90603061194b565b60f81b8183815181106112fe57634e487b7160e01b600052603260045260246000fd5b60200101906001600160f81b031916908160001a905350611320600a86611963565b94506112b2565b6001600160a01b03821661137d5760405162461bcd60e51b815260206004820181905260248201527f4552433732313a206d696e7420746f20746865207a65726f20616464726573736044820152606401610487565b61138681610aef565b156113d35760405162461bcd60e51b815260206004820152601c60248201527f4552433732313a20746f6b656e20616c7265616479206d696e746564000000006044820152606401610487565b6001600160a01b03821660009081526003602052604081208054600192906113fc90849061194b565b909155505060008181526002602052604080822080546001600160a01b0319166001600160a01b03861690811790915590518392907fddf252ad1be2c89b69c2b068fc378daa952ba7f163c4a11628f55a4df523b3ef908290a45050565b828054611466906119ba565b90600052602060002090601f01602090048101928261148857600085556114ce565b82601f106114a157805160ff19168380011785556114ce565b828001600101855582156114ce579182015b828111156114ce5782518255916020019190600101906114b3565b506114da9291506114de565b5090565b5b808211156114da57600081556001016114df565b600067ffffffffffffffff8084111561150e5761150e611a50565b604051601f8501601f19908116603f0116810190828211818310171561153657611536611a50565b8160405280935085815286868601111561154f57600080fd5b858560208301376000602087830101525050509392505050565b80356001600160a01b038116811461158057600080fd5b919050565b600082601f830112611595578081fd5b6110c6838335602085016114f3565b6000602082840312156115b5578081fd5b6110c682611569565b600080604083850312156115d0578081fd5b6115d983611569565b91506115e760208401611569565b90509250929050565b600080600060608486031215611604578081fd5b61160d84611569565b925061161b60208501611569565b9150604084013590509250925092565b60008060008060808587031215611640578081fd5b61164985611569565b935061165760208601611569565b925060408501359150606085013567ffffffffffffffff811115611679578182fd5b8501601f81018713611689578182fd5b611698878235602084016114f3565b91505092959194509250565b600080604083850312156116b6578182fd5b6116bf83611569565b9150602083013580151581146116d3578182fd5b809150509250929050565b600080604083850312156116f0578182fd5b6116f983611569565b946020939093013593505050565b600060208284031215611718578081fd5b81356110c681611a66565b600060208284031215611734578081fd5b81516110c681611a66565b60008060408385031215611751578182fd5b823567ffffffffffffffff811115611767578283fd5b61177385828601611585565b9250506115e760208401611569565b600060208284031215611793578081fd5b5035919050565b6000806000606084860312156117ae578283fd5b833560ff811681146117be578384fd5b9250602084013567ffffffffffffffff8111156117d9578283fd5b6117e586828701611585565b9250506117f460408501611569565b90509250925092565b6000815180845261181581602086016020860161198e565b601f01601f19169290920160200192915050565b6000835161183b81846020880161198e565b83519083019061184f81836020880161198e565b01949350505050565b6001600160a01b038581168252841660208201526040810183905260806060820181905260009061188b908301846117fd565b9695505050505050565b6020815260006110c660208301846117fd565b60208082526032908201527f4552433732313a207472616e7366657220746f206e6f6e20455243373231526560408201527131b2b4bb32b91034b6b83632b6b2b73a32b960711b606082015260800190565b60208082526031908201527f4552433732313a207472616e736665722063616c6c6572206973206e6f74206f6040820152701ddb995c881b9bdc88185c1c1c9bdd9959607a1b606082015260800190565b6000821982111561195e5761195e611a24565b500190565b60008261197257611972611a3a565b500490565b60008282101561198957611989611a24565b500390565b60005b838110156119a9578181015183820152602001611991565b8381111561086a5750506000910152565b600181811c908216806119ce57607f821691505b602082108114156119ef57634e487b7160e01b600052602260045260246000fd5b50919050565b6000600019821415611a0957611a09611a24565b5060010190565b600082611a1f57611a1f611a3a565b500690565b634e487b7160e01b600052601160045260246000fd5b634e487b7160e01b600052601260045260246000fd5b634e487b7160e01b600052604160045260246000fd5b6001600160e01b031981168114610aec57600080fdfea264697066735822122005d20117d98ccf51f62dba7dfd939a200775c1796e8f4c396c6d9113e7cdfc9c64736f6c63430008040033",
  "linkReferences": {},
  "deployedLinkReferences": {}
}