{
  "_format": "hh-sol-artifact-1",
  "contractName": "Marketplace",
  "sourceName": "src/backend/contracts/Marketplace.sol",
  "abi": [
    {
      "inputs": [],
      "stateMutability": "nonpayable",
      "type": "constructor"
    },
    {
      "anonymous": false,
      "inputs": [
        {
          "indexed": false,
          "internalType": "uint256",
          "name": "itemId",
          "type": "uint256"
        },
        {
          "indexed": true,
          "internalType": "address",
          "name": "nft",
          "type": "address"
        },
        {
          "indexed": false,
          "internalType": "uint256",
          "name": "tokenId",
          "type": "uint256"
        },
        {
          "indexed": false,
          "internalType": "uint256",
          "name": "price",
          "type": "uint256"
        },
        {
          "indexed": true,
          "internalType": "address",
          "name": "seller",
          "type": "address"
        },
        {
          "indexed": true,
          "internalType": "address",
          "name": "buyer",
          "type": "address"
        }
      ],
      "name": "Bought",
      "type": "event"
    },
    {
      "anonymous": false,
      "inputs": [
        {
          "indexed": false,
          "internalType": "uint256",
          "name": "itemId",
          "type": "uint256"
        },
        {
          "indexed": true,
          "internalType": "address",
          "name": "nft",
          "type": "address"
        },
        {
          "indexed": false,
          "internalType": "uint256",
          "name": "tokenId",
          "type": "uint256"
        },
        {
          "indexed": false,
          "internalType": "uint256",
          "name": "price",
          "type": "uint256"
        },
        {
          "indexed": true,
          "internalType": "address",
          "name": "seller",
          "type": "address"
        }
      ],
      "name": "Offered",
      "type": "event"
    },
    {
      "inputs": [
        {
          "internalType": "contract IERC721",
          "name": "_nft",
          "type": "address"
        },
        {
          "internalType": "uint256[]",
          "name": "_tokenIds",
          "type": "uint256[]"
        },
        {
          "internalType": "uint256",
          "name": "_price",
          "type": "uint256"
        }
      ],
      "name": "bulkListItems",
      "outputs": [],
      "stateMutability": "nonpayable",
      "type": "function"
    },
    {
      "inputs": [
        {
          "internalType": "uint256",
          "name": "_itemId",
          "type": "uint256"
        }
      ],
      "name": "getTotalPrice",
      "outputs": [
        {
          "internalType": "uint256",
          "name": "",
          "type": "uint256"
        }
      ],
      "stateMutability": "view",
      "type": "function"
    },
    {
      "inputs": [],
      "name": "itemCount",
      "outputs": [
        {
          "internalType": "uint256",
          "name": "",
          "type": "uint256"
        }
      ],
      "stateMutability": "view",
      "type": "function"
    },
    {
      "inputs": [
        {
          "internalType": "uint256",
          "name": "",
          "type": "uint256"
        }
      ],
      "name": "items",
      "outputs": [
        {
          "internalType": "uint256",
          "name": "itemId",
          "type": "uint256"
        },
        {
          "internalType": "contract IERC721",
          "name": "nft",
          "type": "address"
        },
        {
          "internalType": "uint256",
          "name": "tokenId",
          "type": "uint256"
        },
        {
          "internalType": "uint256",
          "name": "price",
          "type": "uint256"
        },
        {
          "internalType": "address payable",
          "name": "seller",
          "type": "address"
        },
        {
          "internalType": "bool",
          "name": "sold",
          "type": "bool"
        }
      ],
      "stateMutability": "view",
      "type": "function"
    },
    {
      "inputs": [
        {
          "internalType": "contract IERC721",
          "name": "_nft",
          "type": "address"
        },
        {
          "internalType": "uint256",
          "name": "_tokenId",
          "type": "uint256"
        },
        {
          "internalType": "uint256",
          "name": "_price",
          "type": "uint256"
        }
      ],
      "name": "listItem",
      "outputs": [],
      "stateMutability": "nonpayable",
      "type": "function"
    },
    {
      "inputs": [
        {
          "internalType": "uint256",
          "name": "_itemId",
          "type": "uint256"
        }
      ],
      "name": "purchaseItem",
      "outputs": [],
      "stateMutability": "payable",
      "type": "function"
    }
  ],
  "bytecode": "0x608060405234801561001057600080fd5b5060016000556109c9806100256000396000f3fe6080604052600436106100555760003560e01c80636bfb0d011461005a57806389bfd38f14610083578063bfb231d2146100a5578063ca7dd37514610144578063d38ea5bf14610174578063dd8f22af14610187575b600080fd5b34801561006657600080fd5b5061007060015481565b6040519081526020015b60405180910390f35b34801561008f57600080fd5b506100a361009e3660046108eb565b6101a7565b005b3480156100b157600080fd5b506101086100c036600461091d565b60026020819052600091825260409091208054600182015492820154600383015460049093015491936001600160a01b0390811693919290811690600160a01b900460ff1686565b604080519687526001600160a01b03958616602088015286019390935260608501919091529091166080830152151560a082015260c00161007a565b34801561015057600080fd5b5061007061015f36600461091d565b60009081526002602052604090206003015490565b6100a361018236600461091d565b610396565b34801561019357600080fd5b506100a36101a2366004610864565b610614565b600260005414156101d35760405162461bcd60e51b81526004016101ca90610935565b60405180910390fd5b6002600055806102255760405162461bcd60e51b815260206004820152601f60248201527f5072696365206d7573742062652067726561746572207468616e207a65726f0060448201526064016101ca565b600180549060006102358361096c565b90915550506040516323b872dd60e01b8152336004820152306024820152604481018390526001600160a01b038416906323b872dd90606401600060405180830381600087803b15801561028857600080fd5b505af115801561029c573d6000803e3d6000fd5b50506040805160c081018252600180548083526001600160a01b0389811660208086018281528688018c815260608089018d81523360808b01818152600060a08d018181529a81526002808952908e90209c518d5595518c8c018054918b166001600160a01b03199092169190911790559351948b01949094555160038a015590516004909801805496511515600160a01b026001600160a81b031990971698909516979097179490941790925592548551908152908101899052938401879052945092507f655a0cf9c8db81512be9a76dc1c5ae5380b8816ce6ad659cd61b715e2999d59a910160405180910390a35050600160005550565b600260005414156103b95760405162461bcd60e51b81526004016101ca90610935565b600260008181558281526020919091526040902060038101549082158015906103e457506001548311155b6104255760405162461bcd60e51b81526020600482015260126024820152711a5d195b48191bd95cdb89dd08195e1a5cdd60721b60448201526064016101ca565b813410156104915760405162461bcd60e51b815260206004820152603360248201527f6e6f7420656e6f75676820657468657220746f20636f766572206974656d20706044820152727269636520616e64206d61726b65742066656560681b60648201526084016101ca565b6004810154600160a01b900460ff16156104e15760405162461bcd60e51b81526020600482015260116024820152701a5d195b48185b1c9958591e481cdbdb19607a1b60448201526064016101ca565b600481015460038201546040516001600160a01b039092169181156108fc0291906000818181858888f19350505050158015610521573d6000803e3d6000fd5b506004818101805460ff60a01b1916600160a01b179055600182015460028301546040516323b872dd60e01b8152309381019390935233602484015260448301526001600160a01b0316906323b872dd90606401600060405180830381600087803b15801561058f57600080fd5b505af11580156105a3573d6000803e3d6000fd5b50505050600481015460018201546002830154600384015460408051888152602081019390935282015233926001600160a01b039081169216907f8b4c9c8a607d67b321582dd8461041b1dc2ceeca70c8b7f37f8e02095cf2e76d9060600160405180910390a45050600160005550565b600260005414156106375760405162461bcd60e51b81526004016101ca90610935565b6002600055806106895760405162461bcd60e51b815260206004820152601f60248201527f5072696365206d7573742062652067726561746572207468616e207a65726f0060448201526064016101ca565b60005b8281101561083c57600180549060006106a48361096c565b9190505550846001600160a01b03166323b872dd33308787868181106106da57634e487b7160e01b600052603260045260246000fd5b6040516001600160e01b031960e088901b1681526001600160a01b03958616600482015294909316602485015250602090910201356044820152606401600060405180830381600087803b15801561073157600080fd5b505af1158015610745573d6000803e3d6000fd5b505050506040518060c001604052806001548152602001866001600160a01b0316815260200185858481811061078b57634e487b7160e01b600052603260045260246000fd5b602090810292909201358352508181018590523360408084019190915260006060938401819052600180548252600280855291839020865181559386015190840180546001600160a01b039283166001600160a01b0319909116179055918501519083015591830151600382015560808301516004909101805460a0909401511515600160a01b026001600160a81b03199094169190921617919091179055806108348161096c565b91505061068c565b50506001600055505050565b80356001600160a01b038116811461085f57600080fd5b919050565b60008060008060608587031215610879578384fd5b61088285610848565b9350602085013567ffffffffffffffff8082111561089e578485fd5b818701915087601f8301126108b1578485fd5b8135818111156108bf578586fd5b8860208260051b85010111156108d3578586fd5b95986020929092019750949560400135945092505050565b6000806000606084860312156108ff578283fd5b61090884610848565b95602085013595506040909401359392505050565b60006020828403121561092e578081fd5b5035919050565b6020808252601f908201527f5265656e7472616e637947756172643a207265656e7472616e742063616c6c00604082015260600190565b600060001982141561098c57634e487b7160e01b81526011600452602481fd5b506001019056fea2646970667358221220af908e42a4d5c6034613e822106ba0a18ca7c2cd4021901596457ca5712dd51864736f6c63430008040033",
  "linkReferences": {},
  "deployedLinkReferences": {}
}