{
  "_format": "hh-sol-artifact-1",
  "contractName": "NFTContract",
  "sourceName": "src/backend/contracts/NFTContract.sol",
  "abi": [
    {
      "inputs": [
        {
          "internalType": "address",
          "name": "admin",
          "type": "address"
        }
      ],
      "stateMutability": "nonpayable",
      "type": "constructor"
    },
    {
      "anonymous": false,
      "inputs": [
        {
          "indexed": true,
          "internalType": "address",
          "name": "owner",
          "type": "address"
        },
        {
          "indexed": true,
          "internalType": "address",
          "name": "approved",
          "type": "address"
        },
        {
          "indexed": true,
          "internalType": "uint256",
          "name": "tokenId",
          "type": "uint256"
        }
      ],
      "name": "Approval",
      "type": "event"
    },
    {
      "anonymous": false,
      "inputs": [
        {
          "indexed": true,
          "internalType": "address",
          "name": "owner",
          "type": "address"
        },
        {
          "indexed": true,
          "internalType": "address",
          "name": "operator",
          "type": "address"
        },
        {
          "indexed": false,
          "internalType": "bool",
          "name": "approved",
          "type": "bool"
        }
      ],
      "name": "ApprovalForAll",
      "type": "event"
    },
    {
      "anonymous": false,
      "inputs": [
        {
          "indexed": true,
          "internalType": "address",
          "name": "previousOwner",
          "type": "address"
        },
        {
          "indexed": true,
          "internalType": "address",
          "name": "newOwner",
          "type": "address"
        }
      ],
      "name": "OwnershipTransferred",
      "type": "event"
    },
    {
      "anonymous": false,
      "inputs": [
        {
          "indexed": true,
          "internalType": "address",
          "name": "from",
          "type": "address"
        },
        {
          "indexed": true,
          "internalType": "address",
          "name": "to",
          "type": "address"
        },
        {
          "indexed": true,
          "internalType": "uint256",
          "name": "tokenId",
          "type": "uint256"
        }
      ],
      "name": "Transfer",
      "type": "event"
    },
    {
      "anonymous": false,
      "inputs": [
        {
          "indexed": false,
          "internalType": "uint256",
          "name": "updatedTokenId",
          "type": "uint256"
        }
      ],
      "name": "mintedId",
      "type": "event"
    },
    {
      "inputs": [
        {
          "internalType": "address",
          "name": "",
          "type": "address"
        }
      ],
      "name": "_allowList",
      "outputs": [
        {
          "internalType": "bool",
          "name": "",
          "type": "bool"
        }
      ],
      "stateMutability": "view",
      "type": "function"
    },
    {
      "inputs": [
        {
          "internalType": "address",
          "name": "to",
          "type": "address"
        },
        {
          "internalType": "uint256",
          "name": "tokenId",
          "type": "uint256"
        }
      ],
      "name": "approve",
      "outputs": [],
      "stateMutability": "nonpayable",
      "type": "function"
    },
    {
      "inputs": [
        {
          "internalType": "address",
          "name": "owner",
          "type": "address"
        }
      ],
      "name": "balanceOf",
      "outputs": [
        {
          "internalType": "uint256",
          "name": "",
          "type": "uint256"
        }
      ],
      "stateMutability": "view",
      "type": "function"
    },
    {
      "inputs": [
        {
          "internalType": "uint256",
          "name": "tokenId",
          "type": "uint256"
        }
      ],
      "name": "getApproved",
      "outputs": [
        {
          "internalType": "address",
          "name": "",
          "type": "address"
        }
      ],
      "stateMutability": "view",
      "type": "function"
    },
    {
      "inputs": [
        {
          "internalType": "address",
          "name": "owner",
          "type": "address"
        },
        {
          "internalType": "address",
          "name": "operator",
          "type": "address"
        }
      ],
      "name": "isApprovedForAll",
      "outputs": [
        {
          "internalType": "bool",
          "name": "",
          "type": "bool"
        }
      ],
      "stateMutability": "view",
      "type": "function"
    },
    {
      "inputs": [
        {
          "internalType": "uint8",
          "name": "numberOfTokens",
          "type": "uint8"
        },
        {
          "internalType": "string",
          "name": "_tokenUri",
          "type": "string"
        },
        {
          "internalType": "address",
          "name": "markplace",
          "type": "address"
        }
      ],
      "name": "mintAllowList",
      "outputs": [],
      "stateMutability": "nonpayable",
      "type": "function"
    },
    {
      "inputs": [],
      "name": "name",
      "outputs": [
        {
          "internalType": "string",
          "name": "",
          "type": "string"
        }
      ],
      "stateMutability": "view",
      "type": "function"
    },
    {
      "inputs": [],
      "name": "owner",
      "outputs": [
        {
          "internalType": "address",
          "name": "",
          "type": "address"
        }
      ],
      "stateMutability": "view",
      "type": "function"
    },
    {
      "inputs": [
        {
          "internalType": "uint256",
          "name": "tokenId",
          "type": "uint256"
        }
      ],
      "name": "ownerOf",
      "outputs": [
        {
          "internalType": "address",
          "name": "",
          "type": "address"
        }
      ],
      "stateMutability": "view",
      "type": "function"
    },
    {
      "inputs": [],
      "name": "renounceOwnership",
      "outputs": [],
      "stateMutability": "nonpayable",
      "type": "function"
    },
    {
      "inputs": [
        {
          "internalType": "address",
          "name": "from",
          "type": "address"
        },
        {
          "internalType": "address",
          "name": "to",
          "type": "address"
        },
        {
          "internalType": "uint256",
          "name": "tokenId",
          "type": "uint256"
        }
      ],
      "name": "safeTransferFrom",
      "outputs": [],
      "stateMutability": "nonpayable",
      "type": "function"
    },
    {
      "inputs": [
        {
          "internalType": "address",
          "name": "from",
          "type": "address"
        },
        {
          "internalType": "address",
          "name": "to",
          "type": "address"
        },
        {
          "internalType": "uint256",
          "name": "tokenId",
          "type": "uint256"
        },
        {
          "internalType": "bytes",
          "name": "_data",
          "type": "bytes"
        }
      ],
      "name": "safeTransferFrom",
      "outputs": [],
      "stateMutability": "nonpayable",
      "type": "function"
    },
    {
      "inputs": [
        {
          "internalType": "address",
          "name": "operator",
          "type": "address"
        },
        {
          "internalType": "bool",
          "name": "approved",
          "type": "bool"
        }
      ],
      "name": "setApprovalForAll",
      "outputs": [],
      "stateMutability": "nonpayable",
      "type": "function"
    },
    {
      "inputs": [
        {
          "internalType": "string",
          "name": "_tokenUri",
          "type": "string"
        },
        {
          "internalType": "address",
          "name": "markplace",
          "type": "address"
        }
      ],
      "name": "singleMint",
      "outputs": [],
      "stateMutability": "nonpayable",
      "type": "function"
    },
    {
      "inputs": [
        {
          "internalType": "bytes4",
          "name": "interfaceId",
          "type": "bytes4"
        }
      ],
      "name": "supportsInterface",
      "outputs": [
        {
          "internalType": "bool",
          "name": "",
          "type": "bool"
        }
      ],
      "stateMutability": "view",
      "type": "function"
    },
    {
      "inputs": [],
      "name": "symbol",
      "outputs": [
        {
          "internalType": "string",
          "name": "",
          "type": "string"
        }
      ],
      "stateMutability": "view",
      "type": "function"
    },
    {
      "inputs": [
        {
          "internalType": "uint256",
          "name": "tokenId",
          "type": "uint256"
        }
      ],
      "name": "tokenURI",
      "outputs": [
        {
          "internalType": "string",
          "name": "",
          "type": "string"
        }
      ],
      "stateMutability": "view",
      "type": "function"
    },
    {
      "inputs": [],
      "name": "totalSupply",
      "outputs": [
        {
          "internalType": "uint256",
          "name": "",
          "type": "uint256"
        }
      ],
      "stateMutability": "view",
      "type": "function"
    },
    {
      "inputs": [
        {
          "internalType": "address",
          "name": "from",
          "type": "address"
        },
        {
          "internalType": "address",
          "name": "to",
          "type": "address"
        },
        {
          "internalType": "uint256",
          "name": "tokenId",
          "type": "uint256"
        }
      ],
      "name": "transferFrom",
      "outputs": [],
      "stateMutability": "nonpayable",
      "type": "function"
    },
    {
      "inputs": [
        {
          "internalType": "address",
          "name": "newOwner",
          "type": "address"
        }
      ],
      "name": "transferOwnership",
      "outputs": [],
      "stateMutability": "nonpayable",
      "type": "function"
    },
    {
      "inputs": [
        {
          "internalType": "address",
          "name": "walletAddress",
          "type": "address"
        }
      ],
      "name": "whitelistAdmins",
      "outputs": [],
      "stateMutability": "nonpayable",
      "type": "function"
    }
  ],
  "bytecode": "0x60806040523480156200001157600080fd5b5060405162001d4838038062001d488339810160408190526200003491620001da565b604080518082018252600b81526a15195cdd1a5b99c813919560aa1b6020808301918252835180850190945260048452631513919560e21b908401528151919291620000839160009162000134565b5080516200009990600190602084019062000134565b505050620000b6620000b0620000de60201b60201c565b620000e2565b6001600160a01b03166000908152600960205260409020805460ff1916600117905562000247565b3390565b600780546001600160a01b038381166001600160a01b0319831681179093556040519116919082907f8be0079c531659141344cd1fd0a4f28419497f9722a3daafe3b4186f6b6457e090600090a35050565b82805462000142906200020a565b90600052602060002090601f016020900481019282620001665760008555620001b1565b82601f106200018157805160ff1916838001178555620001b1565b82800160010185558215620001b1579182015b82811115620001b157825182559160200191906001019062000194565b50620001bf929150620001c3565b5090565b5b80821115620001bf5760008155600101620001c4565b600060208284031215620001ec578081fd5b81516001600160a01b038116811462000203578182fd5b9392505050565b600181811c908216806200021f57607f821691505b602082108114156200024157634e487b7160e01b600052602260045260246000fd5b50919050565b611af180620002576000396000f3fe608060405234801561001057600080fd5b50600436106101375760003560e01c806370a08231116100b8578063a22cb4651161007c578063a22cb46514610281578063b88d4fde14610294578063c87b56dd146102a7578063d29dd76d146102ba578063e985e9c5146102ec578063f2fde38b1461032857600080fd5b806370a082311461023a578063715018a61461024d5780638da5cb5b1461025557806395d89b41146102665780639b4ed6451461026e57600080fd5b806323b872dd116100ff57806323b872dd146101cb57806342842e0e146101de5780634d5eb675146101f15780635ccba052146102045780636352211e1461022757600080fd5b806301ffc9a71461013c57806306fdde0314610164578063081812fc14610179578063095ea7b3146101a457806318160ddd146101b9575b600080fd5b61014f61014a366004611746565b61033b565b60405190151581526020015b60405180910390f35b61016c61038d565b60405161015b91906118d4565b61018c6101873660046117c1565b61041f565b6040516001600160a01b03909116815260200161015b565b6101b76101b236600461171d565b6104ac565b005b6008545b60405190815260200161015b565b6101b76101d936600461162f565b6105c2565b6101b76101ec36600461162f565b6105f3565b6101b76101ff36600461177e565b61060e565b61014f6102123660046115e3565b60096020526000908152604090205460ff1681565b61018c6102353660046117c1565b610685565b6101bd6102483660046115e3565b6106fc565b6101b7610783565b6007546001600160a01b031661018c565b61016c6107e9565b6101b761027c3660046117d9565b6107f8565b6101b761028f3660046116e3565b6108ab565b6101b76102a236600461166a565b6108ba565b61016c6102b53660046117c1565b6108ec565b6101b76102c83660046115e3565b6001600160a01b03166000908152600960205260409020805460ff19166001179055565b61014f6102fa3660046115fd565b6001600160a01b03918216600090815260056020908152604080832093909416825291909152205460ff1690565b6101b76103363660046115e3565b610a63565b60006001600160e01b031982166380ac58cd60e01b148061036c57506001600160e01b03198216635b5e139f60e01b145b8061038757506301ffc9a760e01b6001600160e01b03198316145b92915050565b60606000805461039c906119f9565b80601f01602080910402602001604051908101604052809291908181526020018280546103c8906119f9565b80156104155780601f106103ea57610100808354040283529160200191610415565b820191906000526020600020905b8154815290600101906020018083116103f857829003601f168201915b5050505050905090565b600061042a82610b2e565b6104905760405162461bcd60e51b815260206004820152602c60248201527f4552433732313a20617070726f76656420717565727920666f72206e6f6e657860448201526b34b9ba32b73a103a37b5b2b760a11b60648201526084015b60405180910390fd5b506000908152600460205260409020546001600160a01b031690565b60006104b782610685565b9050806001600160a01b0316836001600160a01b031614156105255760405162461bcd60e51b815260206004820152602160248201527f4552433732313a20617070726f76616c20746f2063757272656e74206f776e656044820152603960f91b6064820152608401610487565b336001600160a01b0382161480610541575061054181336102fa565b6105b35760405162461bcd60e51b815260206004820152603860248201527f4552433732313a20617070726f76652063616c6c6572206973206e6f74206f7760448201527f6e6572206e6f7220617070726f76656420666f7220616c6c00000000000000006064820152608401610487565b6105bd8383610b4b565b505050565b6105cc3382610bb9565b6105e85760405162461bcd60e51b815260040161048790611939565b6105bd838383610c9f565b6105bd838383604051806020016040528060008152506108ba565b6008805490600061061e83611a34565b919050555061062f33600854610e3b565b61063b60085483610e55565b6106468160016108ab565b7f9b17d8d4fdc23926c90ecc00f85db55975149ac3c8e0866b5b684af7692daa0f60085460405161067991815260200190565b60405180910390a15050565b6000818152600260205260408120546001600160a01b0316806103875760405162461bcd60e51b815260206004820152602960248201527f4552433732313a206f776e657220717565727920666f72206e6f6e657869737460448201526832b73a103a37b5b2b760b91b6064820152608401610487565b60006001600160a01b0382166107675760405162461bcd60e51b815260206004820152602a60248201527f4552433732313a2062616c616e636520717565727920666f7220746865207a65604482015269726f206164647265737360b01b6064820152608401610487565b506001600160a01b031660009081526003602052604090205490565b6007546001600160a01b031633146107dd5760405162461bcd60e51b815260206004820181905260248201527f4f776e61626c653a2063616c6c6572206973206e6f7420746865206f776e65726044820152606401610487565b6107e76000610ee0565b565b60606001805461039c906119f9565b3360009081526009602052604090205460ff16151560011461084d5760405162461bcd60e51b815260206004820152600e60248201526d24b73b30b634b21026b4b73a32b960911b6044820152606401610487565b60005b8360ff168110156108a5576008805490600061086b83611a34565b919050555061087c33600854610e3b565b61088860085484610e55565b6108938260016108ab565b8061089d81611a34565b915050610850565b50505050565b6108b6338383610f32565b5050565b6108c43383610bb9565b6108e05760405162461bcd60e51b815260040161048790611939565b6108a584848484611001565b60606108f782610b2e565b61095d5760405162461bcd60e51b815260206004820152603160248201527f45524337323155524953746f726167653a2055524920717565727920666f72206044820152703737b732bc34b9ba32b73a103a37b5b2b760791b6064820152608401610487565b60008281526006602052604081208054610976906119f9565b80601f01602080910402602001604051908101604052809291908181526020018280546109a2906119f9565b80156109ef5780601f106109c4576101008083540402835291602001916109ef565b820191906000526020600020905b8154815290600101906020018083116109d257829003601f168201915b505050505090506000610a0d60408051602081019091526000815290565b9050805160001415610a20575092915050565b815115610a52578082604051602001610a3a929190611868565b60405160208183030381529060405292505050919050565b610a5b84611034565b949350505050565b6007546001600160a01b03163314610abd5760405162461bcd60e51b815260206004820181905260248201527f4f776e61626c653a2063616c6c6572206973206e6f7420746865206f776e65726044820152606401610487565b6001600160a01b038116610b225760405162461bcd60e51b815260206004820152602660248201527f4f776e61626c653a206e6577206f776e657220697320746865207a65726f206160448201526564647265737360d01b6064820152608401610487565b610b2b81610ee0565b50565b6000908152600260205260409020546001600160a01b0316151590565b600081815260046020526040902080546001600160a01b0319166001600160a01b0384169081179091558190610b8082610685565b6001600160a01b03167f8c5be1e5ebec7d5bd14f71427d1e84f3dd0314c0f7b2291e5b200ac8c7c3b92560405160405180910390a45050565b6000610bc482610b2e565b610c255760405162461bcd60e51b815260206004820152602c60248201527f4552433732313a206f70657261746f7220717565727920666f72206e6f6e657860448201526b34b9ba32b73a103a37b5b2b760a11b6064820152608401610487565b6000610c3083610685565b9050806001600160a01b0316846001600160a01b03161480610c6b5750836001600160a01b0316610c608461041f565b6001600160a01b0316145b80610a5b57506001600160a01b0380821660009081526005602090815260408083209388168352929052205460ff16610a5b565b826001600160a01b0316610cb282610685565b6001600160a01b031614610d165760405162461bcd60e51b815260206004820152602560248201527f4552433732313a207472616e736665722066726f6d20696e636f72726563742060448201526437bbb732b960d91b6064820152608401610487565b6001600160a01b038216610d785760405162461bcd60e51b8152602060048201526024808201527f4552433732313a207472616e7366657220746f20746865207a65726f206164646044820152637265737360e01b6064820152608401610487565b610d83600082610b4b565b6001600160a01b0383166000908152600360205260408120805460019290610dac9084906119b6565b90915550506001600160a01b0382166000908152600360205260408120805460019290610dda90849061198a565b909155505060008181526002602052604080822080546001600160a01b0319166001600160a01b0386811691821790925591518493918716917fddf252ad1be2c89b69c2b068fc378daa952ba7f163c4a11628f55a4df523b3ef91a4505050565b6108b682826040518060200160405280600081525061110c565b610e5e82610b2e565b610ec15760405162461bcd60e51b815260206004820152602e60248201527f45524337323155524953746f726167653a2055524920736574206f66206e6f6e60448201526d32bc34b9ba32b73a103a37b5b2b760911b6064820152608401610487565b600082815260066020908152604090912082516105bd92840190611499565b600780546001600160a01b038381166001600160a01b0319831681179093556040519116919082907f8be0079c531659141344cd1fd0a4f28419497f9722a3daafe3b4186f6b6457e090600090a35050565b816001600160a01b0316836001600160a01b03161415610f945760405162461bcd60e51b815260206004820152601960248201527f4552433732313a20617070726f766520746f2063616c6c6572000000000000006044820152606401610487565b6001600160a01b03838116600081815260056020908152604080832094871680845294825291829020805460ff191686151590811790915591519182527f17307eab39ab6107e8899845ad3d59bd9653f200f220920489ca2b5937696c31910160405180910390a3505050565b61100c848484610c9f565b6110188484848461113f565b6108a55760405162461bcd60e51b8152600401610487906118e7565b606061103f82610b2e565b6110a35760405162461bcd60e51b815260206004820152602f60248201527f4552433732314d657461646174613a2055524920717565727920666f72206e6f60448201526e3732bc34b9ba32b73a103a37b5b2b760891b6064820152608401610487565b60006110ba60408051602081019091526000815290565b905060008151116110da5760405180602001604052806000815250611105565b806110e48461124c565b6040516020016110f5929190611868565b6040516020818303038152906040525b9392505050565b6111168383611366565b611123600084848461113f565b6105bd5760405162461bcd60e51b8152600401610487906118e7565b60006001600160a01b0384163b1561124157604051630a85bd0160e11b81526001600160a01b0385169063150b7a0290611183903390899088908890600401611897565b602060405180830381600087803b15801561119d57600080fd5b505af19250505080156111cd575060408051601f3d908101601f191682019092526111ca91810190611762565b60015b611227573d8080156111fb576040519150601f19603f3d011682016040523d82523d6000602084013e611200565b606091505b50805161121f5760405162461bcd60e51b8152600401610487906118e7565b805181602001fd5b6001600160e01b031916630a85bd0160e11b149050610a5b565b506001949350505050565b6060816112705750506040805180820190915260018152600360fc1b602082015290565b8160005b811561129a578061128481611a34565b91506112939050600a836119a2565b9150611274565b60008167ffffffffffffffff8111156112c357634e487b7160e01b600052604160045260246000fd5b6040519080825280601f01601f1916602001820160405280156112ed576020820181803683370190505b5090505b8415610a5b576113026001836119b6565b915061130f600a86611a4f565b61131a90603061198a565b60f81b81838151811061133d57634e487b7160e01b600052603260045260246000fd5b60200101906001600160f81b031916908160001a90535061135f600a866119a2565b94506112f1565b6001600160a01b0382166113bc5760405162461bcd60e51b815260206004820181905260248201527f4552433732313a206d696e7420746f20746865207a65726f20616464726573736044820152606401610487565b6113c581610b2e565b156114125760405162461bcd60e51b815260206004820152601c60248201527f4552433732313a20746f6b656e20616c7265616479206d696e746564000000006044820152606401610487565b6001600160a01b038216600090815260036020526040812080546001929061143b90849061198a565b909155505060008181526002602052604080822080546001600160a01b0319166001600160a01b03861690811790915590518392907fddf252ad1be2c89b69c2b068fc378daa952ba7f163c4a11628f55a4df523b3ef908290a45050565b8280546114a5906119f9565b90600052602060002090601f0160209004810192826114c7576000855561150d565b82601f106114e057805160ff191683800117855561150d565b8280016001018555821561150d579182015b8281111561150d5782518255916020019190600101906114f2565b5061151992915061151d565b5090565b5b80821115611519576000815560010161151e565b600067ffffffffffffffff8084111561154d5761154d611a8f565b604051601f8501601f19908116603f0116810190828211818310171561157557611575611a8f565b8160405280935085815286868601111561158e57600080fd5b858560208301376000602087830101525050509392505050565b80356001600160a01b03811681146115bf57600080fd5b919050565b600082601f8301126115d4578081fd5b61110583833560208501611532565b6000602082840312156115f4578081fd5b611105826115a8565b6000806040838503121561160f578081fd5b611618836115a8565b9150611626602084016115a8565b90509250929050565b600080600060608486031215611643578081fd5b61164c846115a8565b925061165a602085016115a8565b9150604084013590509250925092565b6000806000806080858703121561167f578081fd5b611688856115a8565b9350611696602086016115a8565b925060408501359150606085013567ffffffffffffffff8111156116b8578182fd5b8501601f810187136116c8578182fd5b6116d787823560208401611532565b91505092959194509250565b600080604083850312156116f5578182fd5b6116fe836115a8565b915060208301358015158114611712578182fd5b809150509250929050565b6000806040838503121561172f578182fd5b611738836115a8565b946020939093013593505050565b600060208284031215611757578081fd5b813561110581611aa5565b600060208284031215611773578081fd5b815161110581611aa5565b60008060408385031215611790578182fd5b823567ffffffffffffffff8111156117a6578283fd5b6117b2858286016115c4565b925050611626602084016115a8565b6000602082840312156117d2578081fd5b5035919050565b6000806000606084860312156117ed578283fd5b833560ff811681146117fd578384fd5b9250602084013567ffffffffffffffff811115611818578283fd5b611824868287016115c4565b925050611833604085016115a8565b90509250925092565b600081518084526118548160208601602086016119cd565b601f01601f19169290920160200192915050565b6000835161187a8184602088016119cd565b83519083019061188e8183602088016119cd565b01949350505050565b6001600160a01b03858116825284166020820152604081018390526080606082018190526000906118ca9083018461183c565b9695505050505050565b602081526000611105602083018461183c565b60208082526032908201527f4552433732313a207472616e7366657220746f206e6f6e20455243373231526560408201527131b2b4bb32b91034b6b83632b6b2b73a32b960711b606082015260800190565b60208082526031908201527f4552433732313a207472616e736665722063616c6c6572206973206e6f74206f6040820152701ddb995c881b9bdc88185c1c1c9bdd9959607a1b606082015260800190565b6000821982111561199d5761199d611a63565b500190565b6000826119b1576119b1611a79565b500490565b6000828210156119c8576119c8611a63565b500390565b60005b838110156119e85781810151838201526020016119d0565b838111156108a55750506000910152565b600181811c90821680611a0d57607f821691505b60208210811415611a2e57634e487b7160e01b600052602260045260246000fd5b50919050565b6000600019821415611a4857611a48611a63565b5060010190565b600082611a5e57611a5e611a79565b500690565b634e487b7160e01b600052601160045260246000fd5b634e487b7160e01b600052601260045260246000fd5b634e487b7160e01b600052604160045260246000fd5b6001600160e01b031981168114610b2b57600080fdfea2646970667358221220a114a7140abb4ef6c2abf4e07b9dc3aa0dc6ca2e6fdfee25dce3283178e1230b64736f6c63430008040033",
  "linkReferences": {},
  "deployedLinkReferences": {}
}